{
  "_format": "hh-sol-artifact-1",
  "contractName": "Vault",
  "sourceName": "contracts/Vault.sol",
  "abi": [
    {
      "inputs": [
        {
          "internalType": "address",
          "name": "_stBTC",
          "type": "address"
        }
      ],
      "stateMutability": "nonpayable",
      "type": "constructor"
    },
    {
      "anonymous": false,
      "inputs": [
        {
          "indexed": true,
          "internalType": "string",
          "name": "btcTxHash",
          "type": "string"
        },
        {
          "indexed": true,
          "internalType": "address",
          "name": "user",
          "type": "address"
        },
        {
          "indexed": false,
          "internalType": "uint256",
          "name": "amount",
          "type": "uint256"
        },
        {
          "indexed": false,
          "internalType": "uint256",
          "name": "unlockTime",
          "type": "uint256"
        },
        {
          "indexed": false,
          "internalType": "string",
          "name": "finalityProvider",
          "type": "string"
        }
      ],
      "name": "DepositRegistered",
      "type": "event"
    },
    {
      "anonymous": false,
      "inputs": [
        {
          "indexed": true,
          "internalType": "string",
          "name": "provider",
          "type": "string"
        }
      ],
      "name": "FinalityProviderAuthorized",
      "type": "event"
    },
    {
      "anonymous": false,
      "inputs": [
        {
          "indexed": true,
          "internalType": "string",
          "name": "provider",
          "type": "string"
        }
      ],
      "name": "FinalityProviderDeauthorized",
      "type": "event"
    },
    {
      "anonymous": false,
      "inputs": [
        {
          "indexed": true,
          "internalType": "address",
          "name": "previousOwner",
          "type": "address"
        },
        {
          "indexed": true,
          "internalType": "address",
          "name": "newOwner",
          "type": "address"
        }
      ],
      "name": "OwnershipTransferred",
      "type": "event"
    },
    {
      "anonymous": false,
      "inputs": [
        {
          "indexed": false,
          "internalType": "address",
          "name": "account",
          "type": "address"
        }
      ],
      "name": "Paused",
      "type": "event"
    },
    {
      "anonymous": false,
      "inputs": [
        {
          "indexed": true,
          "internalType": "string",
          "name": "btcTxHash",
          "type": "string"
        },
        {
          "indexed": true,
          "internalType": "address",
          "name": "user",
          "type": "address"
        },
        {
          "indexed": false,
          "internalType": "uint256",
          "name": "amount",
          "type": "uint256"
        }
      ],
      "name": "StBTCMinted",
      "type": "event"
    },
    {
      "anonymous": false,
      "inputs": [
        {
          "indexed": false,
          "internalType": "address",
          "name": "account",
          "type": "address"
        }
      ],
      "name": "Unpaused",
      "type": "event"
    },
    {
      "anonymous": false,
      "inputs": [
        {
          "indexed": true,
          "internalType": "address",
          "name": "user",
          "type": "address"
        },
        {
          "indexed": false,
          "internalType": "uint256",
          "name": "amount",
          "type": "uint256"
        },
        {
          "indexed": false,
          "internalType": "string",
          "name": "btcAddress",
          "type": "string"
        }
      ],
      "name": "WithdrawalRequested",
      "type": "event"
    },
    {
      "inputs": [],
      "name": "MINIMUM_CONFIRMATIONS",
      "outputs": [
        {
          "internalType": "uint256",
          "name": "",
          "type": "uint256"
        }
      ],
      "stateMutability": "view",
      "type": "function"
    },
    {
      "inputs": [
        {
          "internalType": "string",
          "name": "provider",
          "type": "string"
        }
      ],
      "name": "authorizeFinalityProvider",
      "outputs": [],
      "stateMutability": "nonpayable",
      "type": "function"
    },
    {
      "inputs": [
        {
          "internalType": "string",
          "name": "",
          "type": "string"
        }
      ],
      "name": "authorizedFinalityProviders",
      "outputs": [
        {
          "internalType": "bool",
          "name": "",
          "type": "bool"
        }
      ],
      "stateMutability": "view",
      "type": "function"
    },
    {
      "inputs": [
        {
          "internalType": "string",
          "name": "provider",
          "type": "string"
        }
      ],
      "name": "deauthorizeFinalityProvider",
      "outputs": [],
      "stateMutability": "nonpayable",
      "type": "function"
    },
    {
      "inputs": [
        {
          "internalType": "string",
          "name": "",
          "type": "string"
        }
      ],
      "name": "deposits",
      "outputs": [
        {
          "internalType": "address",
          "name": "user",
          "type": "address"
        },
        {
          "internalType": "uint256",
          "name": "amount",
          "type": "uint256"
        },
        {
          "internalType": "string",
          "name": "btcTxHash",
          "type": "string"
        },
        {
          "internalType": "uint256",
          "name": "unlockTime",
          "type": "uint256"
        },
        {
          "internalType": "string",
          "name": "finalityProvider",
          "type": "string"
        },
        {
          "internalType": "uint256",
          "name": "timestamp",
          "type": "uint256"
        },
        {
          "internalType": "bool",
          "name": "processed",
          "type": "bool"
        }
      ],
      "stateMutability": "view",
      "type": "function"
    },
    {
      "inputs": [
        {
          "internalType": "string",
          "name": "btcTxHash",
          "type": "string"
        }
      ],
      "name": "getDeposit",
      "outputs": [
        {
          "components": [
            {
              "internalType": "address",
              "name": "user",
              "type": "address"
            },
            {
              "internalType": "uint256",
              "name": "amount",
              "type": "uint256"
            },
            {
              "internalType": "string",
              "name": "btcTxHash",
              "type": "string"
            },
            {
              "internalType": "uint256",
              "name": "unlockTime",
              "type": "uint256"
            },
            {
              "internalType": "string",
              "name": "finalityProvider",
              "type": "string"
            },
            {
              "internalType": "uint256",
              "name": "timestamp",
              "type": "uint256"
            },
            {
              "internalType": "bool",
              "name": "processed",
              "type": "bool"
            }
          ],
          "internalType": "struct Vault.BabylonDeposit",
          "name": "",
          "type": "tuple"
        }
      ],
      "stateMutability": "view",
      "type": "function"
    },
    {
      "inputs": [
        {
          "internalType": "string",
          "name": "provider",
          "type": "string"
        }
      ],
      "name": "isFinalityProviderAuthorized",
      "outputs": [
        {
          "internalType": "bool",
          "name": "",
          "type": "bool"
        }
      ],
      "stateMutability": "view",
      "type": "function"
    },
    {
      "inputs": [
        {
          "internalType": "string",
          "name": "btcTxHash",
          "type": "string"
        }
      ],
      "name": "mintStBTC",
      "outputs": [],
      "stateMutability": "nonpayable",
      "type": "function"
    },
    {
      "inputs": [],
      "name": "owner",
      "outputs": [
        {
          "internalType": "address",
          "name": "",
          "type": "address"
        }
      ],
      "stateMutability": "view",
      "type": "function"
    },
    {
      "inputs": [],
      "name": "pause",
      "outputs": [],
      "stateMutability": "nonpayable",
      "type": "function"
    },
    {
      "inputs": [],
      "name": "paused",
      "outputs": [
        {
          "internalType": "bool",
          "name": "",
          "type": "bool"
        }
      ],
      "stateMutability": "view",
      "type": "function"
    },
    {
      "inputs": [
        {
          "internalType": "string",
          "name": "btcTxHash",
          "type": "string"
        },
        {
          "internalType": "address",
          "name": "user",
          "type": "address"
        },
        {
          "internalType": "uint256",
          "name": "amount",
          "type": "uint256"
        },
        {
          "internalType": "uint256",
          "name": "unlockTime",
          "type": "uint256"
        },
        {
          "internalType": "string",
          "name": "finalityProvider",
          "type": "string"
        }
      ],
      "name": "registerBabylonDeposit",
      "outputs": [],
      "stateMutability": "nonpayable",
      "type": "function"
    },
    {
      "inputs": [],
      "name": "renounceOwnership",
      "outputs": [],
      "stateMutability": "nonpayable",
      "type": "function"
    },
    {
      "inputs": [
        {
          "internalType": "uint256",
          "name": "amount",
          "type": "uint256"
        },
        {
          "internalType": "string",
          "name": "btcAddress",
          "type": "string"
        }
      ],
      "name": "requestWithdrawal",
      "outputs": [],
      "stateMutability": "nonpayable",
      "type": "function"
    },
    {
      "inputs": [],
      "name": "stBTC",
      "outputs": [
        {
          "internalType": "contract StBTC",
          "name": "",
          "type": "address"
        }
      ],
      "stateMutability": "view",
      "type": "function"
    },
    {
      "inputs": [],
      "name": "totalDeposits",
      "outputs": [
        {
          "internalType": "uint256",
          "name": "",
          "type": "uint256"
        }
      ],
      "stateMutability": "view",
      "type": "function"
    },
    {
      "inputs": [
        {
          "internalType": "address",
          "name": "newOwner",
          "type": "address"
        }
      ],
      "name": "transferOwnership",
      "outputs": [],
      "stateMutability": "nonpayable",
      "type": "function"
    },
    {
      "inputs": [],
      "name": "unpause",
      "outputs": [],
      "stateMutability": "nonpayable",
      "type": "function"
    },
    {
      "inputs": [
        {
          "internalType": "address",
          "name": "",
          "type": "address"
        }
      ],
      "name": "userBalances",
      "outputs": [
        {
          "internalType": "uint256",
          "name": "",
          "type": "uint256"
        }
      ],
      "stateMutability": "view",
      "type": "function"
    }
  ],
  "bytecode": "0x60a06040523480156200001157600080fd5b5060405162001c2638038062001c268339810160408190526200003491620001bc565b600160005562000044336200016a565b6001805460ff60a01b191690556001600160a01b038116620000ac5760405162461bcd60e51b815260206004820152601560248201527f496e76616c696420737442544320616464726573730000000000000000000000604482015260640160405180910390fd5b6001600160a01b038116608052604080516266703160e81b80825260046003808401829052845193849003602390810185208054600160ff1991821681179092556233381960e91b875286840194909452865195869003909101852080549093161790915590825291519081900390910181209060008051602062001c0683398151915290600090a26040516233381960e91b81526003016040519081900381209060008051602062001c0683398151915290600090a250620001ee565b600180546001600160a01b038381166001600160a01b0319831681179093556040519116919082907f8be0079c531659141344cd1fd0a4f28419497f9722a3daafe3b4186f6b6457e090600090a35050565b600060208284031215620001cf57600080fd5b81516001600160a01b0381168114620001e757600080fd5b9392505050565b6080516119e76200021f600039600081816101b1015281816104b601528181610d2a0152610e5d01526119e76000f3fe608060405234801561001057600080fd5b50600436106101215760003560e01c80637d882097116100ad578063ba2d516811610071578063ba2d516814610273578063bef63a5114610286578063d089adc7146102b4578063d20747a8146102bc578063f2fde38b146102dc57600080fd5b80637d882097146102185780638456cb59146102215780638da5cb5b146102295780639cf2ca151461023a578063b9a8a4fd1461024d57600080fd5b806354e04928116100f457806354e04928146101895780635ae7daa5146101ac5780635c975abb146101eb5780636ab81f9a146101fd578063715018a61461021057600080fd5b8063164035911461012657806326224c641461013b578063282a1a5a1461016e5780633f4ba83a14610181575b600080fd5b610139610134366004611429565b6102ef565b005b61015b610149366004611487565b60036020526000908152604090205481565b6040519081526020015b60405180910390f35b61013961017c3660046114a9565b61057c565b6101396109ae565b61019c610197366004611429565b6109c0565b6040519015158152602001610165565b6101d37f000000000000000000000000000000000000000000000000000000000000000081565b6040516001600160a01b039091168152602001610165565b600154600160a01b900460ff1661019c565b61013961020b366004611429565b6109f0565b610139610a6e565b61015b60055481565b610139610a80565b6001546001600160a01b03166101d3565b610139610248366004611429565b610a90565b61026061025b366004611556565b610b0e565b604051610165979695949392919061164d565b6101396102813660046116a8565b610c75565b61019c610294366004611556565b805160208183018101805160048252928201919093012091525460ff1681565b61015b600681565b6102cf6102ca366004611429565b610f4c565b60405161016591906116f4565b6101396102ea366004611487565b61112d565b6001546001600160a01b031633146103465760405162461bcd60e51b815260206004820152601560248201527413db9b1e481c995b185e595c8818d85b8818d85b1b605a1b60448201526064015b60405180910390fd5b61034e6111a6565b6103566111f3565b60006002838360405161036a929190611777565b9081526020016040518091039020905060008160050154116103c75760405162461bcd60e51b815260206004820152601660248201527511195c1bdcda5d081b9bdd081c9959da5cdd195c995960521b604482015260640161033d565b600681015460ff161561041c5760405162461bcd60e51b815260206004820152601960248201527f4465706f73697420616c72656164792070726f63657373656400000000000000604482015260640161033d565b600081600101546402540be400610433919061179d565b60068301805460ff1916600117905582546001600160a01b03166000908152600360205260408120805492935083929091906104709084906117b4565b92505081905550806005600082825461048991906117b4565b909155505081546040516340c10f1960e01b81526001600160a01b039182166004820152602481018390527f0000000000000000000000000000000000000000000000000000000000000000909116906340c10f1990604401600060405180830381600087803b1580156104fc57600080fd5b505af1158015610510573d6000803e3d6000fd5b505083546040516001600160a01b039091169250610532915086908690611777565b604051908190038120838252907f5ec5782b0fa5a44daf5ba19ad7fa268a9b4b577dc37da71590e6d5e2546634069060200160405180910390a350506105786001600055565b5050565b6001546001600160a01b031633146105ce5760405162461bcd60e51b815260206004820152601560248201527413db9b1e481c995b185e595c8818d85b8818d85b1b605a1b604482015260640161033d565b6105d66111a6565b6105de6111f3565b8561062b5760405162461bcd60e51b815260206004820152601860248201527f496e76616c6964207472616e73616374696f6e20686173680000000000000000604482015260640161033d565b6001600160a01b0385166106785760405162461bcd60e51b8152602060048201526014602482015273496e76616c69642075736572206164647265737360601b604482015260640161033d565b600084116106c85760405162461bcd60e51b815260206004820152601d60248201527f416d6f756e74206d7573742062652067726561746572207468616e2030000000604482015260640161033d565b4283116107175760405162461bcd60e51b815260206004820152601d60248201527f556e6c6f636b2074696d65206d75737420626520696e20667574757265000000604482015260640161033d565b60048282604051610729929190611777565b9081526040519081900360200190205460ff166107885760405162461bcd60e51b815260206004820152601e60248201527f556e617574686f72697a65642066696e616c6974792070726f76696465720000604482015260640161033d565b6002878760405161079a929190611777565b9081526020016040518091039020600501546000146107fb5760405162461bcd60e51b815260206004820152601a60248201527f4465706f73697420616c72656164792072656769737465726564000000000000604482015260640161033d565b6040518060e00160405280866001600160a01b0316815260200185815260200188888080601f016020809104026020016040519081016040528093929190818152602001838380828437600092019190915250505090825250602080820186905260408051601f860183900483028101830182528581529201919085908590819084018382808284376000920182905250938552505042602084015250604091820152516002906108af908a908a90611777565b9081526040805160209281900383019020835181546001600160a01b0319166001600160a01b0390911617815591830151600183015582015160028201906108f7908261184f565b506060820151600382015560808201516004820190610916908261184f565b5060a0820151600582015560c0909101516006909101805460ff19169115159190911790556040516001600160a01b038616906109569089908990611777565b60405180910390207f6556199a379a9736874c69ecb5e6d6249e0bd227e18ae8e0916b7e2071e76726868686866040516109939493929190611938565b60405180910390a36109a56001600055565b50505050505050565b6109b661124c565b6109be6112a6565b565b6000600483836040516109d4929190611777565b9081526040519081900360200190205460ff1690505b92915050565b6109f861124c565b600160048383604051610a0c929190611777565b908152604051908190036020018120805492151560ff1990931692909217909155610a3a9083908390611777565b604051908190038120907f8a24c802d7f34c9a3f1f40906bbf9d0a92595a358abb69a8cf5278b87185229590600090a25050565b610a7661124c565b6109be60006112fb565b610a8861124c565b6109be61134d565b610a9861124c565b600060048383604051610aac929190611777565b908152604051908190036020018120805492151560ff1990931692909217909155610ada9083908390611777565b604051908190038120907fdb476331f63794e214f0a3cce20b2887e6fe56bf8db675921b6dddaf0d3123d990600090a25050565b8051602081830181018051600280835293830192909401919091209290528154600183015491830180546001600160a01b039092169391610b4e906117c7565b80601f0160208091040260200160405190810160405280929190818152602001828054610b7a906117c7565b8015610bc75780601f10610b9c57610100808354040283529160200191610bc7565b820191906000526020600020905b815481529060010190602001808311610baa57829003601f168201915b505050505090806003015490806004018054610be2906117c7565b80601f0160208091040260200160405190810160405280929190818152602001828054610c0e906117c7565b8015610c5b5780601f10610c3057610100808354040283529160200191610c5b565b820191906000526020600020905b815481529060010190602001808311610c3e57829003601f168201915b50505050600583015460069093015491929160ff16905087565b610c7d6111a6565b610c856111f3565b60008311610cc65760405162461bcd60e51b815260206004820152600e60248201526d125b9d985b1a5908185b5bdd5b9d60921b604482015260640161033d565b80610d135760405162461bcd60e51b815260206004820152601760248201527f496e76616c696420426974636f696e2061646472657373000000000000000000604482015260640161033d565b6040516370a0823160e01b815233600482015283907f00000000000000000000000000000000000000000000000000000000000000006001600160a01b0316906370a0823190602401602060405180830381865afa158015610d79573d6000803e3d6000fd5b505050506040513d601f19601f82011682018060405250810190610d9d9190611962565b1015610de25760405162461bcd60e51b8152602060048201526014602482015273496e73756666696369656e742062616c616e636560601b604482015260640161033d565b33600090815260036020526040902054831115610e415760405162461bcd60e51b815260206004820152601a60248201527f496e73756666696369656e74207661756c742062616c616e6365000000000000604482015260640161033d565b604051632770a7eb60e21b8152336004820152602481018490527f00000000000000000000000000000000000000000000000000000000000000006001600160a01b031690639dc29fac90604401600060405180830381600087803b158015610ea957600080fd5b505af1158015610ebd573d6000803e3d6000fd5b50503360009081526003602052604081208054879450909250610ee190849061197b565b925050819055508260056000828254610efa919061197b565b909155505060405133907fecd530470929966d3de311064f35791c8253e836fec43c700975f5b65fd4959f90610f359086908690869061198e565b60405180910390a2610f476001600055565b505050565b610f976040518060e0016040528060006001600160a01b0316815260200160008152602001606081526020016000815260200160608152602001600081526020016000151581525090565b60028383604051610fa9929190611777565b90815260408051918290036020908101832060e08401835280546001600160a01b031684526001810154918401919091526002810180549192840191610fee906117c7565b80601f016020809104026020016040519081016040528092919081815260200182805461101a906117c7565b80156110675780601f1061103c57610100808354040283529160200191611067565b820191906000526020600020905b81548152906001019060200180831161104a57829003601f168201915b505050505081526020016003820154815260200160048201805461108a906117c7565b80601f01602080910402602001604051908101604052809291908181526020018280546110b6906117c7565b80156111035780601f106110d857610100808354040283529160200191611103565b820191906000526020600020905b8154815290600101906020018083116110e657829003601f168201915b50505091835250506005820154602082015260069091015460ff1615156040909101529392505050565b61113561124c565b6001600160a01b03811661119a5760405162461bcd60e51b815260206004820152602660248201527f4f776e61626c653a206e6577206f776e657220697320746865207a65726f206160448201526564647265737360d01b606482015260840161033d565b6111a3816112fb565b50565b600154600160a01b900460ff16156109be5760405162461bcd60e51b815260206004820152601060248201526f14185d5cd8589b194e881c185d5cd95960821b604482015260640161033d565b6002600054036112455760405162461bcd60e51b815260206004820152601f60248201527f5265656e7472616e637947756172643a207265656e7472616e742063616c6c00604482015260640161033d565b6002600055565b6001546001600160a01b031633146109be5760405162461bcd60e51b815260206004820181905260248201527f4f776e61626c653a2063616c6c6572206973206e6f7420746865206f776e6572604482015260640161033d565b6112ae611390565b6001805460ff60a01b191690557f5db9ee0a495bf2e6ff9c91a7834c1ba4fdd244a5e8aa4e537bd38aeae4b073aa335b6040516001600160a01b03909116815260200160405180910390a1565b600180546001600160a01b038381166001600160a01b0319831681179093556040519116919082907f8be0079c531659141344cd1fd0a4f28419497f9722a3daafe3b4186f6b6457e090600090a35050565b6113556111a6565b6001805460ff60a01b1916600160a01b1790557f62e78cea01bee320cd4e420270b5ea74000d11b0c9f74754ebdbfc544b05a2586112de3390565b600154600160a01b900460ff166109be5760405162461bcd60e51b815260206004820152601460248201527314185d5cd8589b194e881b9bdd081c185d5cd95960621b604482015260640161033d565b60008083601f8401126113f257600080fd5b50813567ffffffffffffffff81111561140a57600080fd5b60208301915083602082850101111561142257600080fd5b9250929050565b6000806020838503121561143c57600080fd5b823567ffffffffffffffff81111561145357600080fd5b61145f858286016113e0565b90969095509350505050565b80356001600160a01b038116811461148257600080fd5b919050565b60006020828403121561149957600080fd5b6114a28261146b565b9392505050565b600080600080600080600060a0888a0312156114c457600080fd5b873567ffffffffffffffff808211156114dc57600080fd5b6114e88b838c016113e0565b90995097508791506114fc60208b0161146b565b965060408a0135955060608a0135945060808a013591508082111561152057600080fd5b5061152d8a828b016113e0565b989b979a50959850939692959293505050565b634e487b7160e01b600052604160045260246000fd5b60006020828403121561156857600080fd5b813567ffffffffffffffff8082111561158057600080fd5b818401915084601f83011261159457600080fd5b8135818111156115a6576115a6611540565b604051601f8201601f19908116603f011681019083821181831017156115ce576115ce611540565b816040528281528760208487010111156115e757600080fd5b826020860160208301376000928101602001929092525095945050505050565b6000815180845260005b8181101561162d57602081850181015186830182015201611611565b506000602082860101526020601f19601f83011685010191505092915050565b60018060a01b038816815286602082015260e06040820152600061167460e0830188611607565b866060840152828103608084015261168c8187611607565b60a0840195909552505090151560c09091015295945050505050565b6000806000604084860312156116bd57600080fd5b83359250602084013567ffffffffffffffff8111156116db57600080fd5b6116e7868287016113e0565b9497909650939450505050565b6020815260018060a01b038251166020820152602082015160408201526000604083015160e0606084015261172d610100840182611607565b9050606084015160808401526080840151601f198483030160a08501526117548282611607565b91505060a084015160c084015260c0840151151560e08401528091505092915050565b8183823760009101908152919050565b634e487b7160e01b600052601160045260246000fd5b80820281158282048414176109ea576109ea611787565b808201808211156109ea576109ea611787565b600181811c908216806117db57607f821691505b6020821081036117fb57634e487b7160e01b600052602260045260246000fd5b50919050565b601f821115610f4757600081815260208120601f850160051c810160208610156118285750805b601f850160051c820191505b8181101561184757828155600101611834565b505050505050565b815167ffffffffffffffff81111561186957611869611540565b61187d8161187784546117c7565b84611801565b602080601f8311600181146118b2576000841561189a5750858301515b600019600386901b1c1916600185901b178555611847565b600085815260208120601f198616915b828110156118e1578886015182559484019460019091019084016118c2565b50858210156118ff5787850151600019600388901b60f8161c191681555b5050505050600190811b01905550565b81835281816020850137506000828201602090810191909152601f909101601f19169091010190565b84815283602082015260606040820152600061195860608301848661190f565b9695505050505050565b60006020828403121561197457600080fd5b5051919050565b818103818111156109ea576109ea611787565b8381526040602082015260006119a860408301848661190f565b9594505050505056fea26469706673582212207a44485197b157ebfb9749c2201fa4a604dcd3018eabc47e07e9e4d5f484a0ec64736f6c634300081300338a24c802d7f34c9a3f1f40906bbf9d0a92595a358abb69a8cf5278b871852295",
  "linkReferences": {},
  "deployedLinkReferences": {}
}